:020000040000FA
:02000000B9281D
:08000800162883160814831268
:1000100008008B138316081555308900AA30890013
:1000200088148818112883128B170800090085018D
:10003000831600308500831286018316F83086000F
:1000400083120510851005150730860001309400D5
:100050009D01063089000520AA300802031D3D28B5
:10006000890A052055300802031D3D28890A05200C
:10007000CC300802031D3D280800890101308800AA
:100080000920880A890A06300902031D4028AA307F
:1000900088000920890A553088000920890ACC3057
:1000A000880009200800051105308E00592005152B
:1000B000080028308D0053308C008C0B5D288D0B90
:1000C0005B288E0B59280800003086008F0106142B
:1000D000000006087839031D7C288F0A861400006A
:1000E00006087839031D7C288F0A061500000608CB
:1000F0007839031D7C288B28910106089000900C0C
:10010000900C900C0310900C03188E28910A043068
:100110001102031D8228FF3093000800110803100C
:10012000910D91070F0811079300930A08006420AE
:100130001308920002308E0001206420130812027E
:10014000031D9728FF301202031DA92801309400D7
:10015000AF2801301402031DAF2894010800FF30BE
:10016000920008009720FF3012020319B228532092
:10017000080017205320B2200A301202031DBB28AA
:10018000B2200A3012020319E2280C3012020319BD
:1001900012290630950001309600890105200808D3
:1001A00012020319D4289601950BE428161CEF2897
:1001B0009D0105140511851464308E0059208510A9
:1001C0000515BB280510C028B2200A3012020319F9
:1001D000C0280C3012020319BB28890ACE289D0AB8
:1001E00004301D02031D05293C30950053200F30BB
:1001F0008E00592053200F308E0059205320373065
:100200008E005920950BF628BB281E308E005920F1
:1002100053200A308E00592053200A308E00592076
:100220005320BB2801309600063095008901B2208A
:100230000A3012020319C0280C30120203190529D2
:10024000052012088802031926299601890A950BB0
:1002500017290630950017308400B2200A301202A8
:100260000319C0280C301202031905291208800056
:10027000840A950B2D290630950017308400B22092
:100280000A3012020319C0280C3012020319052982
:100290000008120203194D299601840A950B3F2983
:1002A000161C0529051164308E00592005150630ED
:1002B0009500173084008901000888000920840A0D
:0802C000890A950B5C29BB289B
:084000000000000000000700B1
:02400E00F33F7E
:1042000000000000000000000000000000000000AE
:024210000000AC
:00000001FF
