:020000040000FA
:1000000001280A206D209808031D0828D320022803
:1000100037210228831600308500103086008312B5
:100020008501860105100516162008002830692173
:100030000511051094012030552005306921283024
:100040005520053069210C305520063055204030B0
:100050005520141406305220093052200930522005
:100060000630522000305220003052200030522002
:10007000003052203C20080014100130552002307E
:100080006921080014108030552008001410C03079
:100090005520080014109030552008001410D0305E
:1000A0005520080014145520080095005A20150EFC
:1000B0005A200800F03991001408910408308F008C
:1000C0008510911B851405140510910D8F0B602868
:1000D0000515051102306F21080098019120CC30E0
:1000E000B0204430B0209808031D9028BF20101C79
:1000F000732891209808031D9028CC30B020BE3082
:10010000B0209201A4209700A4209600A420A4204F
:10011000A420A420A420A420A4209208031D181524
:100120000800051260306F2105168316051683122C
:100130000D306F21051A981450306F21051E1814C8
:100140008316051283120800910008308F00BF202B
:10015000910C9113101891178F0BA7281108080004
:10016000910008308F00051202306F21111805161A
:100170000A306F210516910C8F0BB3280800051269
:1001800076210516831605168312762100001010BD
:10019000051A101407306F21051E18148316051256
:1001A0008312522108009411061E9415422020301B
:1001B00052202030522054305220453052204D30B1
:1001C000522050305220453052205230522041307F
:1001D0005220543052205530522052305220453057
:1001E00052204620203052202030522020305220F1
:1001F000203052209608031901292D3052209709EA
:10020000970A901017189014970C97136430970260
:1002100003180E296430970710111129313052202C
:10022000101593010A309702031C1829930A12290A
:100230000A3097079308031D1F29101D222930300B
:10024000130752203030170752202E3052209018BA
:100250002C29303052202E29353052202030522087
:1002600000305220433052202030522008004620D7
:10027000203052202030522045305220523052201F
:10028000523052204F3052205230522020305220D3
:100290003030180752202030522020305220203099
:1002A000522008001018572912185D295929121CCC
:1002B0005D29920C7F3092056229920C7F30920565
:1002C0008C30920608008E00C83069218E0B64299C
:1002D00008008D00C8306F218D0B6A290800FF3E91
:0E02E0008C00000000008C0B71290800080043
:02400E00F13F80
:00000001FF
